:020000040800F2
:100000002008002091010008632000086D160008F8
:10001000612000086F0600085D2400080000000051
:100020000000000000000000000000001D22000889
:100030007106000800000000D52100081F220008FA
:10004000AB010008AB010008AB010008AB010008E0
:10005000AB010008AB010008AB010008AB010008D0
:10006000AB010008AB010008AB010008AB010008C0
:10007000AB010008AB010008AB010008AB010008B0
:10008000AB010008AB010008AB010008AB010008A0
:10009000AB010008AB010008AB010008AB01000890
:1000A000AB010008AB010008AB010008AB01000880
:1000B000AB010008AB010008AB010008AB01000870
:1000C000AB010008AB010008AB010008AB01000860
:1000D000AB010008AB010008AB010008AB01000850
:1000E000AB010008AB010008AB01000800F002F80A
:1000F00000F03FF80AA090E8000C82448344AAF183
:100100000107DA4501D100F034F8AFF2090EBAE880
:100110000F0013F0010F18BFFB1A43F0010318473B
:100120005C5B00007C5B0000103A24BF78C878C19B
:10013000FAD8520724BF30C830C144BF04680C60ED
:10014000704700000023002400250026103A28BF35
:1001500078C1FBD8520728BF30C148BF0B60704739
:10016000642900F0A180002070471FB51FBD10B5A5
:1001700010BD00F047FA1146FFF7F7FF03F052F801
:1001800000F065FA03B4FFF7F2FF03BC00F068FA71
:100190000948804709480047FEE7FEE7FEE7FEE71B
:1001A000FEE7FEE7FEE7FEE7FEE7FEE70448054957
:1001B000054A064B7047000081220008ED00000848
:1001C000200200202008002020040020200400201D
:1001D00010B54C1084EA530404D54042C1F100012B
:1001E00038BF491E1B4204D55242C3F1000338BF39
:1001F0005B1E00F0F3F814F0804F04D04042C1F1D0
:10020000000138BF491E14F0004F04D05242C3F120
:10021000000338BF5B1E10BD0FB41CB5074B06AA08
:100220007B4469460090059800F0ADF900206946CE
:1002300000F0BCF91CBC5DF814FB00008903000051
:100240002DE9F0410E460446002020622046E16878
:10025000884730B3252805D0D4E901219047206A8A
:10026000401CF2E7E168204600278847050018D0C7
:10027000A5F14100192802D820354FF40067324615
:10028000294620462760FFF76BFF40B1012804D0C4
:10029000F61D26F007060836D8E7361DD6E72846AD
:1002A000DAE7206ABDE8F0812DE9F0410646002436
:1002B00010687529314616A510D0AFF300800028CC
:1002C00002DA404213A507E031688A0701D512A57A
:1002D00002E0490704D511A5012401E0AFF3008035
:1002E00000210A2206F1240709E0B0FBF2FCB0FB72
:1002F000F2F302FB1C00303078541846491C0028E9
:10030000F3D123462A463046BDE8F04100F0DDB87F
:10031000000000002D0000002B0000002000000065
:1003200040EA010310B59B070FD1042A0DD310C872
:1003300008C9121F9C42F8D020BA19BA884201D9C4
:10034000012010BD4FF0FF3010BD1AB1D30703D00C
:10035000521C07E0002010BD10F8013B11F8014BC2
:100360001B1B07D110F8013B11F8014B1B1B01D1DE
:10037000921EF1D1184610BD02F0FF0343EA03229A
:1003800042EA024200F019B94FF0000200B51346EC
:1003900094469646203922BFA0E80C50A0E80C50A5
:1003A000B1F12001BFF4F7AF090728BFA0E80C5056
:1003B00048BF0CC05DF804EB890028BF40F8042B4F
:1003C00008BF704748BF20F8022B11F0804F18BFBC
:1003D00000F8012B704770477047704753EA020CD2
:1003E00000F069802DE9F04B4FF00006002B1FBF95
:1003F000B3FA83F503FA05F424FA05F65E4012BF5A
:100400001643B2FA82F502FA05F4C5F120051EBFC3
:1004100022FA05FC44EA0C04203556EA044C4FEA63
:10042000144418BF641C4FF000084FF000099042BC
:1004300071EB030C39D3002919BFB1FA81F701FA26
:1004400007F6B0FA80F700FA07F6C7F120071EBFDB
:1004500020FA07FC46EA0C062037B6FBF4FCA7EBB3
:100460000507103F07F01F0BCBF120060CFA0BFB22
:100470002CFA06F644BFB3460026202FA4BF5E46E2
:100480004FF0000B5BEA060C08BF4FF0010B19EBB5
:100490000B09ABFB027C48EB0608C01B06FB02CC39
:1004A0000BFB03CC71EB0C01C1E70B460246414646
:1004B0004846BDE8F08B13B54FF000004FF0000147
:1004C000AFF30080BDE81C4070472DE9F0470D46B2
:1004D00099469246044600F124080168880604D52E
:1004E000E06921F01001216000E00120A84201DD57
:1004F000471B00E00027A1697A1902EB0900081ADE
:10050000A0612078C00602D42046AFF30080002608
:1005100008E0D4E901211AF806009047206A401C3F
:10052000761C20624E45F4DB2078C0060AD52046B2
:10053000AFF3008006E0D4E9012130209047206A23
:10054000401C2062381EA7F10107F4DC07E0D4E963
:10055000012118F805009047206A401C2062281EDF
:10056000A5F10105F3DC2046AFF3008020780006FA
:1005700002D50220BDE8F0870120FBE701694A1C93
:1005800002610878704700B58FB0CDE901310021D4
:10059000059105497944CDE9031011466846FFF7F6
:1005A0004FFE0FB000BD0000E5FFFFFF0A6802F834
:1005B000010B0A6070474FF000020429C0F012805E
:1005C00010F0030C3FF4E2AECCF1040CBCF1020FCE
:1005D00018BF00F8012BA8BF20F8022BA1EB0C01DB
:1005E000FFF7D4BE5FEAC17C24BF00F8012B00F8FE
:1005F000012B48BF00F8012B7047000000487047EE
:10060000C00100207546FFF7F9FFAE4605006946B8
:10061000534620F00700854618B020B5FFF7C6FD09
:10062000BDE820404FF000064FF000074FF00008F3
:100630004FF0000B21F00701AC46ACE8C009ACE874
:10064000C009ACE8C009ACE8C0098D46704710B5D8
:100650000446AFF300802046BDE81040FFF792BD8E
:1006600001491820ABBEFEE7260002007047FEE7F6
:10067000704772B6FEE7000070B5044600F008F956
:100680000546601C02D004480078044400F000F9DC
:10069000401BA042FAD370BD600000202DE9F84F46
:1006A000DFF8B8910024A9F1040B23460F2709F1C4
:1006B000040AABF1040EC9E00125A5402A40AA4274
:1006C0007DD1674ED1F804C0ACEB0608B44532D0FA
:1006D00014DCBCF1030F3AD009DCBCF1000F2AD0C6
:1006E000BCF1010F1CD0BCF1020F31D11DE0BCF1F7
:1006F000110F17D0BCF1120F2AD119E0B8F5881FDD
:1007000019D006DCB8F5803F15D0B8F5801F1FD191
:1007100011E0B8F5001F0ED0B8F5041F18D10AE09B
:10072000CB6815E0CB681B1D12E0CB6808330FE0E7
:10073000CB680C330CE08B682BB1012B4FF0080316
:1007400003D0456104E0042302E0056100E00023DA
:10075000FF2A01D8064601E000F104064FEA8405AD
:1007600001D9A5F12005D6F8008007FA05FC28EA92
:100770000C0803FA05F548EA0508C6F800804D683C
:10078000ED0062D5374DAE6946F00106AE61AD6948
:1007900024F0030605F001050095334D06EB050C2A
:1007A000DCF80850A607360F07FA06F825EA080510
:1007B000DFF8B880404503D14FF0000817E044E06F
:1007C000DFF8AC80404502D14FF001080FE0DFF8C0
:1007D000A480404502D14FF0020808E0DFF898807D
:1007E000404502D14FF0030801E04FF0040808FA39
:1007F00006F848EA0508CCF808804D68D9F800608A
:10080000ED024D4601D5164300E096432E604D683B
:10081000DAF80060AD02554601D5164300E0964374
:100820002E604D68DBF80060AD035D4601D51643D0
:1008300000E096432E604D68DEF80060ED037546DB
:1008400001D5164300E096432E60641C0D682A46CD
:10085000E5407FF431AFBDE8F88F000008040140A7
:10086000000011100010024000000140000801408B
:10087000000C014000100140001401408068084055
:1008800000D0012070470AB1016170470904FBE7FD
:1008900001488068704700006000002070B50400C7
:1008A00025D094F83D00002520B984F83C5020461E
:1008B00000F050F9242084F83D002068016821F000
:1008C000010101602068016841F400410160206875
:1008D000016821F40041016000F094FA4D4A61681A
:1008E000914201D84C4900E04C49884201D2012094
:1008F00070BD4B492368B0FBF1F15E6826F03F06FE
:100900000E435E606368934206D94FF49673594371
:100910004FF47A73B1FBF3F12368491C1E6A26F089
:100920003F06314319626168914210D84900401E68
:10093000B0FBF1F2521CC2F30B02042A01D20420D4
:1009400022E0B0FBF1F0401CC0F30B001CE0A268F9
:10095000F2B301EBC10303EB0116431EB3FBF6F345
:100960005B1C43F480431B0549D092B301EBC102E9
:1009700002EB0111401EB0FBF1F0401CC0F30B0074
:1009800040F4804040F400402168CA694CF6FF738F
:100990009A431043C861D4E90710014320680268F4
:1009A00022F0C00211430160D4E903010143206831
:1009B000826848F2FF339A4311438160D4E905010C
:1009C00008432168CA6822F0FF021043C86001E0B2
:1009D0000EE016E02068016841F001010160256425
:1009E000202084F83D00256384F83E50002070BD2F
:1009F00001EB4106431EB3FBF6F35B1CB3E701209A
:100A0000C2E701EB4101401EB0FBF1F0401CC0F316
:100A10000B00B7E7A086010080841E0000093D009E
:100A200040420F002DE9FF4F83B09A46DDE9119750
:100A300093460446DDF84080FFF72AFF054694F808
:100A40003D0020287FD119230122404920460095EE
:100A500000F0A4FE002876D194F83C00012872D062
:100A6000012084F83C0020680168C90703D10168AF
:100A700041F0010101602068016821F4006101601A
:100A8000212084F83D00402084F83E0000262664A2
:100A9000C4F82480A4F82A90608D20852C48E06258
:100AA000CDE9007553465A462046049900F0F6FDFC
:100AB00070B930E02A463946204600F015FF58B19B
:100AC000206C042804D12068016841F400710160A1
:100AD000012007B0BDE8F08F606A216800780861E6
:100AE000606A401C6062218D491E89B22185628D39
:100AF000521E628522685369DB435B070BD469B1E0
:100B000000781061606A401C6062208D401E208564
:100B1000608D401E6085208D0028CBD12A46394645
:100B2000204600F00FFE0028CAD154F83D0B0168A2
:100B300041F400710160202004F81E09E677667711
:100B40000020C6E7FFE70220C3E700000200100014
:100B50000000FFFF10B586B00021009101910291C5
:100B6000039100681349884222D1134CA06940F0D8
:100B70000800A061A069694600F0080004904FF4E5
:100B80004070009012200190032003900B48FFF763
:100B900085FD0B48416841F0E06141F00201416090
:100BA000E06940F40010E061E06900F40010049096
:100BB00006B010BD0054004000100240000C01407F
:100BC000000001400248816802781144816070474A
:100BD00060000020074810B5016841F01001016075
:100BE000032000F067F80F2000F006F800F024F86A
:100BF000002010BD0020024070B50D4D04464FF49A
:100C00007A712878B1FBF0F00A490968B1FBF0F07D
:100C100000F0BEFA48B9102C07D200222146501E1F
:100C200000F028F800206C6070BD012070BD00004D
:100C3000600000206C0000200C4808B5816941F07C
:100C400001018161816901F001010091C16941F0F7
:100C50008051C161C06900F0805000900448416833
:100C600021F0E06141F00071416008BD00100240D8
:100C700000000140F0B40E4B1B680C46C3F3022386
:100C8000C3F10705042D00D90425191D072901D238
:100C9000002300E0DB1E012606FA05F1491E214073
:100CA00099409E40761E16403143F0BC01F0F2BBE5
:100CB0000CED00E0064900F0070208684FF6FF035C
:100CC000184040EA0220034A1043086070470000C1
:100CD0000CED00E00000FA052DE9F0470F46050095
:100CE00061D0434E306800F00700B84209D2306846
:100CF00020F0070038433060306800F00700B84249
:100D000051D128683B4C810712D5400703D5606854
:100D100040F4E06060602878000703D5606840F424
:100D2000605060606068A96820F0F000084360606F
:100D30002878C00728D06868012810D021680228C8
:100D400010D0890700292EDA616821F003010143E0
:100D50006160FFF79DFD804641F288390DE0216812
:100D60008903EFE78901EDE7FFF792FDA0EB0801AA
:100D7000494502D90320BDE8F0876068696800F042
:100D80000C00B0EB810FEFD1306800F00700B842E3
:100D90000BD9306820F0070038433060306800F02D
:100DA0000700B84201D00120E5E72878400705D5C3
:100DB0006068E96820F4E060084360602878000714
:100DC00006D56068296920F4605040EAC10060607F
:100DD00000F028F86168084AC1F30311515CC8406B
:100DE0000649086006480068FFF706FF0020C2E7D2
:100DF0000020024000100240645C00086C000020EB
:100E0000640000200448054900684968044AC1F3A9
:100E10000221515CC84070476C0000200010024065
:100E2000745C00080E4A51680E4801F00C03042B54
:100E300011D0082B0FD10C48C1F38343C903C05C08
:100E40000AD55168084AC1F34041921E515C054AD7
:100E50005043B0FBF1F0704704494843704700002D
:100E60000010024000127A00545C000800093D00A6
:100E70002DE9F84F040070D02078C04DC00749D04C
:100E80006868C0F38100012807D06868C0F381005A
:100E9000022809D16868C00306D52868800339D5BF
:100EA00060680028E7D035E06068B0F5803F0BD07F
:100EB00010B1B0F5A02F11D0286820F48030286040
:100EC000286820F4802002E0286840F48030286000
:100ED000606890B1FFF7DCFC06460AE0286840F441
:100EE00080202860F0E700BFFFF7D2FC801B642859
:100EF00073D828688003F7D50CE0FFF7C9FC0646D5
:100F000005E000BFFFF7C4FC801B6428F0D8286808
:100F10008003F7D420789A4E80074FF001094FF0F4
:100F2000000839D5686810F00C0F07D06868C0F366
:100F30008100022809D16868C00306D428688007A8
:100F400014D52069012808D110E02069B0B1C6F895
:100F50000090FFF79DFC074605E00AE1FFF798FCCB
:100F6000C01B0228C4D828688007F7D528686169A3
:100F700020F0F80040EAC10028600DE0C6F80080CB
:100F8000FFF786FC074604E0FFF782FCC01B02283F
:100F900023D828688007F7D4207800072CD5794813
:100FA000A169D9B1C0F80090FFF772FC074604E0D0
:100FB000FFF76EFCC01B02280FD8686A8007F7D5C0
:100FC00071484FF4FA510068B0FBF1F0009000BF97
:100FD0000098411E0091FAD20EE080E0C0F8008037
:100FE000FFF756FC074604E0FFF752FCC01B02283F
:100FF00075D8686A8007F7D42078400760D5E8691B
:101000000027C00008D4E86940F08050E861E86932
:10101000012700F0805000905C480168C90513D496
:101020000168834641F480710160FFF731FC82461C
:1010300006E000BFFFF72CFCA0EB0A0064284ED8A6
:10104000DBF80000C005F5D5E06801280AD008B13A
:10105000052813D0286A20F001002862286A20F0B1
:10106000040002E0286A40F001002862E06841F2D2
:10107000883B98B1FFF70CFC82460BE0286A40F0F1
:1010800004002862EEE700BFFFF702FCA0EB0A01B4
:1010900059455AD8286A8007F6D50CE0FFF7F8FBC7
:1010A000824605E0FFF7F4FBA0EB0A0159454CD856
:1010B000286A8007F6D41FB1E86920F08050E86103
:1010C000E06988B36968C1F38101022944D002282C
:1010D000C6F8608004D0FFF7DBFB044638E034E05C
:1010E000FFF7D6FB074604E0FFF7D2FBC01B022840
:1010F0002BD828688001F7D4206AB0F5803F05D14D
:101100006868A16820F4003008436860D4E90801E9
:101110000843696821F4741108436860C6F8609058
:10112000FFF7B6FB044606E025E000BFFFF7B0FB83
:10113000001B022809D828688001F7D51BE000BFF2
:10114000FFF7A6FB001B022802D90320BDE8F88F99
:1011500028688001F4D40EE00128F7D06868226A7C
:1011600000F48031914204D1616A00F47010884229
:1011700001D00120EAE70020E8E70000001002406B
:1011800000004242800442426C0000200070004097
:1011900010B5401EB0F1807F01D3012010BD4FF08B
:1011A000E02460610F21601701F074F90020A06154
:1011B00007202061002010BD10B590F83C20012AC6
:1011C00022D0012280F83C20CA688C6822F4407248
:1011D00022434C6822F4806222430C6822F40062AD
:1011E00022430C6922F4805222434C6922F40052BB
:1011F0002243C969002322F480420A4301684A64F9
:1012000080F83C30002010BD022010BD70B590F871
:101210003C20012A26D0012480F83C40022280F89C
:101220003D2003685A689D6822F070060A683243C0
:101230005A600D4B02689A4208D0B2F1804F05D037
:101240000A4B9A4202D00A4B9A4204D1496825F0CF
:1012500080031943916080F83D40002180F83C10E4
:10126000084670BD022070BD002C01400004004003
:10127000000800402DE9F0410D46040003D094F829
:101280003D0018B108E00120BDE8F081002084F89D
:101290003C00204600F040F8022084F83D00206821
:1012A000816844F2070291438160211D206800F0AB
:1012B000E9FF226890689169166A2B68AF69034359
:1012C00040F20330814341EA0721A868EF690843EF
:1012D0004FF6FC418843E96840EA0720014328694A
:1012E0002F6A000140EA0730084369686D6926F0FB
:1012F000220646EA0515294393602268906154F856
:10130000460B0162012004F81F09E0752076E076A3
:101310002077A0750020B7E700B585B000210091C7
:1013200001910291039101681A48B1F1804F1BD0DD
:10133000194A914216D1C16941F00401C161C169E4
:1013400001F004010491816941F008018161806923
:10135000694600F008000490C02000900F4800BFCC
:10136000FFF79CF905B000BDC16941F00101C16101
:10137000C16901F001010491816941F004018161B9
:101380008069694600F0040004900320009004483E
:10139000E6E700000010024000080040000C014099
:1013A0000008014070B590F83E60044690F83F5048
:1013B00090F8423090F84320022021B104290ED049
:1013C000012E1BD114E0012E18D1012B16D184F867
:1013D0003E0084F8420001220021206820E0012D17
:1013E0000CD1012A0AD184F83F0084F8430014E0AC
:1013F000012D03D1012B01D1012A01D0012070BDA3
:1014000084F83E0084F83F0084F8420084F84300EA
:1014100001220021206800F071FF012204212068D0
:1014200000F06CFF2068016841F0010101600020BC
:1014300070BD000000B585B00021009101910291BE
:10144000039100680B49884212D10B48816941F031
:10145000040181618069694600F0040004904FF442
:10146000106000900220019003900448FFF716F9E5
:1014700005B000BD002C01400010024000080140F2
:1014800070B5044690F83C0000260D4601280FD0A8
:10149000012084F83C006AB1042A1DD0082A2FD00C
:1014A0000C2A3FD00126002084F83C00304670BD55
:1014B000022070BD206800F02FFF2068816941F094
:1014C000080181612068816921F00401816120683F
:1014D00081692A69114311E0206800F045FF206806
:1014E000816941F4006181612068816921F4806132
:1014F0008161206881692A6941EA02218161D2E71C
:10150000206800F05DFF2068C16941F00801C161F9
:101510002068C16921F00401C1612068C1692A699C
:10152000114311E0206800F077FF2068C16941F4A1
:101530000061C1612068C16921F48061C1612068D6
:10154000C1692A6941EA0221C161ACE710B5040012
:1015500003D094F83D0010B107E0012010BD002039
:1015600084F83C00204600F01FF8022084F83D007B
:10157000211D206800F086FE012084F8460084F8D2
:101580003E0084F83F0084F8400084F8410084F86D
:10159000420084F8430084F8440084F8450084F84D
:1015A0003D00002010BD000008B5006806498842D3
:1015B00008D10648816941F400618161806900F4C5
:1015C0000060009008BD0000002C014000100240A7
:1015D00010B50446022249B104290ED0082913D0BF
:1015E00094F84100012816D0012010BD94F83E0067
:1015F0000128F9D184F83E200FE094F83F0001283B
:10160000F2D184F83F2008E094F840000128EBD1A3
:1016100084F8402001E084F841200122206800F095
:101620006DFE0F492068884203D1426C42F40042AB
:1016300042642068884208D0B0F1804F05D0094943
:10164000884202D00849884204D1816801F007012C
:10165000062903D0016841F001010160002010BD9E
:10166000002C01400004004000080040FEE7016833
:101670004A69D24352050FD46FF480624A61002157
:1016800040F8301F202242738173026942F0040245
:101690000261017301207047002070472DE9F84373
:1016A000044600680D46DDE908970168984616462D
:1016B00041F4807101604B4600224FF00111204639
:1016C000009700F06BF848B120680068C00502D5AB
:1016D0004FF4007020640320BDE8F883216805F012
:1016E000FE0008613B464A461549204600F09EF838
:1016F00088B920684169806900903A464946204689
:1017000000F0F2F848B1206C042804D12068016888
:1017100041F4007101600120DEE7F5B2B8F1010F7C
:1017200009D02168300A08613A464946204600F04F
:10173000DBF80028E7D1206805610020CCE7000035
:101740000200010070B516460D4604461EE0204614
:10175000FFF78DFF08B1012070BD681C16D0FFF7A0
:1017600097F8801BA84200D885B920684069C0431B
:1017700040070BD5002044F8300F20216173A0737F
:10178000216941F0200121612073E4E7206840696C
:10179000C0434007DBD4002070BD00002DE9F047B6
:1017A000984617460D460446C1F30746DDF82090DB
:1017B0002AE000BFB8F1FF3F26D0FFF769F8A0EBA1
:1017C0000901414502D8B8F1000F1DD12068012E52
:1017D00016D0806925EA00000004000C12D0002019
:1017E000B84211D1002044F8300F20216173A0735A
:1017F000216941F02001216120730120BDE8F087BB
:101800004069E7E70120EBE72068012E0AD08069F4
:1018100025EA00000004000C06D00020B842C9D020
:101820000020EBE74069F3E70120F7E72DE9F047F7
:10183000984616460D4604464FF000094FF0200A20
:10184000C1F3074723E020684069C043400515D431
:101850002068016841F40071016021686FF48060C4
:101860004861C4F8309084F83DA084F83E90216C23
:1018700041F00401216484F83C9021E0701C06D002
:10188000FFF706F8A0EB0800B04203D816B1012F0D
:101890001FD021E02068012F15D0806925EA0000C3
:1018A0000004000C18D000BF44F8309F84F80DA04D
:1018B00084F80E90216941F02001216184F80C9098
:1018C0000120BDE8F087406925EA00000004000C13
:1018D000EAD12068406901E02068806925EA0000BB
:1018E0000004000CAFD1ECE770B516460D46044677
:1018F0001EE02046FFF7BBFE08B1012070BD681C4A
:1019000016D0FEF7C5FF801BA84200D885B9206815
:101910004069C04300060BD5002044F8300F202159
:101920006173A073216941F0200121612073E4E714
:1019300020684069C0430006DBD4002070BD000071
:1019400010B50E4C002208212046FEF79CFF00F047
:1019500017F8012210212046FEF795FF00F010F83D
:10196000002210212046FEF78EFF00F009F82046E5
:101970000122BDE810400821FEF785BF000C0140A0
:101980000020401CC0B20A28FBD370470C4800B5A9
:10199000816985B041F0080181618069694600F084
:1019A000080004901820009003200390112001905B
:1019B0000448FEF773FE00F09DF805B000BD00007E
:1019C00000100240000C014010B50C4C012208210F
:1019D0002046FEF758FFFFF7D3FF012210212046D3
:1019E000FEF751FFFFF7CCFF002210212046FEF743
:1019F0004AFFBDE81040FFF7C3BF0000000C0140E4
:101A00002DE9F0410024134E074625466006040EDA
:101A1000012210213046FEF736FFFFF7B1FF082103
:101A20003046FEF72BFF08B1641CE4B200221021FF
:101A30003046FEF728FFFFF7A3FF6D1CEDB2082D1F
:101A4000E4D327B1FFF77CFF2046BDE8F081FFF724
:101A5000BBFFF9E7000C014070B5154E05460024A8
:101A6000280601D5012200E0002208213046FEF7B9
:101A70000AFFFFF785FF012210213046FEF703FF22
:101A8000FFF77EFF002210213046FEF7FCFE072CF8
:101A900004D1012208213046FEF7F5FE6806050E46
:101AA000FFF76EFF641CE4B2082CD9D370BD0000B0
:101AB000000C014010B50E4C012208212046FEF713
:101AC000E2FE012210212046FEF7DDFEFFF758FF5F
:101AD000002208212046FEF7D6FEFFF751FF002224
:101AE00010212046FEF7CFFEBDE81040FFF748BFAB
:101AF000000C014010B50A4C002208212046FEF7D8
:101B0000C2FE012210212046FEF7BDFEFFF738FF7E
:101B100020460122BDE810400821FEF7B4BE0000B7
:101B2000000C014070B5104D012208212846FEF737
:101B3000AAFEFFF725FF012210212846FEF7A3FE8B
:101B4000FFF71EFF08212846FEF798FE08B1012482
:101B500000E00024002210212846FEF794FEFFF743
:101B60000FFF204670BD0000000C01402DE9F04140
:101B7000214F0D4604004FF400564FF480584FF0AB
:101B8000010225D031463846FEF77DFE002241464F
:101B90003846FEF778FE002C00DA6442174E3068B3
:101BA00004644FF480444FF400484FF00102CDB17B
:101BB00021463846FEF767FE002241463846FEF7CA
:101BC00062FE002D00DA6D4230684563BDE8F081A9
:101BD00041463846FEF757FE002231463846FEF7AA
:101BE00052FEDBE741463846FEF74DFE0022214615
:101BF0003846FEF748FEE7E7000C0140E800002009
:101C000010B5FFF7C3FE80216B2000F0C0F8642000
:101C1000FEF732FD00216B2000F0B9F8032000F040
:101C200082F8002000F07AF8322000F099F80021C4
:101C3000382000F0ACF800216A2000F0A8F800215C
:101C4000232000F0A4F88021372000F0A0F87520B0
:101C500000F011F8682801D0012010BD01216B208F
:101C600000F095F800216C2000F091F8322000F08F
:101C700077F8002010BD10B50446FFF71BFFD020F9
:101C8000FFF7EAFEFFF74EFF2046FFF7E5FEFFF7FE
:101C900049FFFFF70FFFD120FFF7DEFEFFF742FFFE
:101CA0000020FFF7ADFE0446FFF724FF204610BDDD
:101CB0002DE9F0411D4614460F460646FFF7FAFE91
:101CC0007006000EFFF7C8FEFFF72CFF20B1FFF7EC
:101CD00011FF0120BDE8F0813846FFF7BDFEFFF798
:101CE00021FFFFF7E7FE012000EB4600C0B2FFF73F
:101CF000B3FEFFF717FF09E0012C0DD05FF00100E4
:101D0000FFF77EFE641E05F8010BE4B2002CF3D150
:101D1000FFF7F0FE0020DDE70020F1E7C006010E2E
:101D20001C2000F034B8C006010E1B2000F02FB8B4
:101D3000BC2801D3012110E0622801D302210CE06C
:101D40002A2801D3032108E0142801D3042104E048
:101D50000A2801D3052100E006211A2000F017B857
:101D600010B504464FF47A70844201D9044602E06B
:101D7000042C00D20424B0FBF4F0401EC1B21920A0
:101D800000F005F86008BDE81040FFF7D1BF70B55E
:101D90000C460546FFF78EFED020FFF75DFEFFF7ED
:101DA000C1FE50B92846FFF757FEFFF7BBFE20469D
:101DB000FFF752FEFFF7B6FE18B1FFF79BFE0120BA
:101DC00070BDFFF797FE002070BD2DE9F0411E4663
:101DD00015460F460446FFF76DFE6006000EFFF73E
:101DE0003BFEFFF79FFE60B93846FFF735FEFFF771
:101DF00099FE00240CE0305DFFF72EFEFFF792FE07
:101E000020B1FFF777FE0120BDE8F081641CE4B249
:101E1000AC42F0D3FFF76EFE0020F5E770B586B058
:101E200000241C480094019402940394816941F0B9
:101E300010018161816901F010010491816941F013
:101E400020018161816901F020010491816941F0E3
:101E500004018161816901F004010491816941F00B
:101E60000801816180690C4E00F008004FF21805EE
:101E70000490002229463046FEF705FD012000951A
:101E8000CDE901040220039069463046FEF706FCC6
:101E900006B070BD00100240000C01400D4810B5A6
:101EA0000B4901600C49416000214FF48042816080
:101EB000C0E9031241618161C1610162FEF7EEFC7C
:101EC000002803D0BDE81040FEF7D3BB10BD0000D2
:101ED0000054004094000020A086010030B591B06D
:101EE00000240F941C2168461094FEF74DFA20211F
:101EF00007A8FEF749FA24482249632502C0472172
:101F000032C040F81049446184611F48FFF71EFB4E
:101F100008B1FEF7AEFB0F940FA91B481094FFF712
:101F200075F908B1FEF7A5FB60200090CDE90154DA
:101F30000394049405940022694613480694FFF71D
:101F40009FFA08B1FEF795FB0C2269460E48FFF791
:101F500097FA08B1FEF78DFB0794089409944FF4A3
:101F600000500A94CDE90B4007A907480E94FFF7EB
:101F700023F908B1FEF77DFB0348FFF75BFA11B0C8
:101F800030BD0000002C0140E800002010B58CB0EE
:101F900024216846FEF7F8F90024154809944FF00B
:101FA00080410A94C0E900144FF6FF71C0E9024174
:101FB000046184610320CDE900040120CDE902041D
:101FC0000494CDE905400794694609480894FFF751
:101FD00051F908B1FEF74DFB099409A904480A9488
:101FE000FFF714F9002801D0FEF743FB0CB010BD39
:101FF0003001002010B58CB024216846FEF7C4F9EA
:1020000000241648099414490A94C0E900144FF6B4
:10201000FF71C0E90241046184610320CDE900043D
:102020000120CDE902040494CDE9054007946946F6
:102030000A480894FFF71EF908B1FEF71AFB099445
:1020400009A906480A94FFF7E1F8002801D0FEF735
:1020500010FB0CB010BD000000080040780100200B
:10206000FEE7FEE770B5002404F1B000C0B200F056
:102070008DF8002000F08AF8102000F087F8002585
:10208000002000F095F86D1CEDB2802DF8D3641C93
:10209000E4B2082CE8D370BD10B5C820FEF7ECFA06
:1020A000BDE8104000F0DCB910B50446B031C8B24C
:1020B00000F06CF8102040EA141000F067F804F00B
:1020C0000F00BDE8104000F061B800002DE9F041BC
:1020D000203A00240D468046D6B27F2803D900203E
:1020E0008D1C8046EDB2102B29460FD0FFF7DCFF88
:1020F000164906EB460001EB4005285D00F058F854
:10210000641CE4B2062CF8D3BDE8F081FFF7CCFFE5
:102110000F4F00BF04EB0610385C00F049F8641C58
:10212000E4B2082CF6D36D1CE9B24046FFF7BCFFC1
:102130005FF0000404EB06103844007A00F038F831
:10214000641CE4B2082CF5D3DEE700004246000828
:102150006A4800082DE9F041984617460E460446A5
:1021600000250DE0434631462046FFF7AFFF083417
:10217000E4B2782C02D90024B61CF6B26D1CEDB284
:102180007A5D002AEED1BDE8F081000001B584B08F
:1021900001214FF4807204A88DE807000B4600224D
:1021A00078210248FEF73EFC05B000BD94000020F7
:1021B00001B584B001214FF4807204A88DE80700B6
:1021C0000B46402278210248FEF72CFC05B000BDEA
:1021D0009400002070470000094810B50168094CC0
:1021E0002268891A0A290AD300682060064800F08C
:1021F0000FF86060054800F00BF84042A06010BD89
:1022000068000020540000203001002078010020E8
:102210000168486A002200B24A6270477047FEF7C0
:10222000D1BC30B58FB028216846FEF7ADF8142137
:102230000AA8FEF7A9F801210804CDE9001000243E
:10224000029402250491CDE907504FF4E010099063
:102250006846FEF70DFE08B172B6FEE70F20CDE925
:102260000A054FF48060CDE90C4002210AA80E94C3
:10227000FEF732FD002801D072B6FEE70FB030BD88
:1022800070470000F0B50268194B1A4C1A4D4FF018
:102290008047984205D0B84203D0A04201D0A8425E
:1022A00003D122F070064A683243984205D0B84202
:1022B00003D0A04201D0A84203D122F44074CA68DE
:1022C00022434C6922F08002224302608A68C26283
:1022D0000A688262984201D1096901630121416162
:1022E0000169C90703D0016921F001010161F0BD55
:1022F000002C0140000400400008004010B501F02F
:102300001F030121046A99408C430462016A9A40C8
:102310001143016210BD000030B5036A026A22F069
:10232000010202624268846924F073050C682C4340
:1023300023F002058B682B430A4DA8420BD123F0F2
:102340000805CB6822F440722B434D6923F0040347
:1023500015438A692A434260846149684163036284
:1023600030BD0000002C014030B5026A036A23F042
:1023700010030362436884690D6824F4E64444EA68
:1023800005248D6822F0200242EA05120B4DA84276
:102390000ED1CD6822F0800242EA05124D6923F485
:1023A000406343EA85038D6922F0400243EA8503D6
:1023B0004360846149688163026230BD002C014042
:1023C00030B5036A026A22F4807202624268C4690C
:1023D00023F4007324F073050C682C438D6843EAE2
:1023E00005230C4DA8420ED1CD6823F4006343EAC7
:1023F00005234D6922F4405242EA05128D6923F407
:10240000806342EA05124260C4614968C1630362A5
:1024100030BD0000002C014030B5046A026A22F48D
:10242000805202624268C3690D6823F4E64343EABE
:1024300005238D6824F4005444EA0534064DA8426F
:1024400004D14D6922F4804242EA85124260C361A0
:1024500049680164046230BD002C0140FEE70000C1
:10246000FEB50024094F4FF4807501263819CDE9D7
:10247000000601230022782102950548FEF7D2FAD2
:10248000641CE4B21B2CF1D3FEBD00000000002050
:10249000940000200907090E002804DB00F1E02069
:1024A00080F80014704700F00F0000F1E02080F881
:1024B000141D70472DE9FE4F07460E46002568465D
:1024C00000F030FC00246FF00F0AE8464FF00109DD
:1024D00057F8240056F82410401A00D5404201F065
:1024E000D3FE514602F06FF858F8241011F0FF4F58
:1024F0000BD001F0CBFD4FF07E5101F0BDFF0A493A
:1025000020F00040884205DC07E0084908440849FB
:10251000884202D309FA04F00543641C032CD7DB7C
:102520002846BDE8FE8F0000295C0F3E666666C146
:102530009A99D90008B560B120208DF800002820B4
:102540008DF8010030208DF8020038208DF803004E
:1025500004E0A32204216846FDF70EFF6A46042129
:1025600040F69E2001F094FC01F052F908BD0000F5
:102570003EB5044602208DF80000CA208DF8010007
:10258000E3208DF8020009208DF803006A4604213B
:10259000682001F07DFCA3208DF80000610609D5BC
:1025A000C0218DF80110C8218DF80210C2218DF8CC
:1025B000031005E08DF801008DF802008DF803008E
:1025C00014F4C07F09D0C4218DF80410CC218DF8FB
:1025D0000510C6218DF8061005E08DF804008DF871
:1025E00005008DF806008DF808008DF807008DF8BD
:1025F00009006A460A2140F6A72001F049FCA0071D
:102600004FF0D80503D020208DF8000001E08DF8B0
:1026100000506A46012140F6B62001F039FCA006C0
:1026200001D5012000E0002000F08EF814F4C07FF6
:102630001ED0E0050AD5B2208DF800008B208DF861
:102640000100B6208DF802009B2009E0B0208DF833
:10265000000080208DF80100B4208DF80200902049
:102660008DF803006A46042140F6A22001F010FC18
:10267000E1074FF40B6022D0F8218DF800106A4674
:10268000012101F005FCFA21072000F097FA07204C
:1026900000F062FA012000F07FFA642000F022FBD3
:1026A0004FF4FA7000F02EFBC821254800F01CFA08
:1026B000282000F031FA0A2000F03EFA05E08DF8FB
:1026C00000506A46012101F0E3FBA00703D5D920A1
:1026D0008DF8000001E08DF800506A46012140F2BB
:1026E0003D7001F0D5FB600701D5012000E000201E
:1026F00000F048F8E00601D5012000E00020FFF7D7
:1027000019FF104D44F00800688101F081F80020A5
:10271000A873600601D50620A87314F4C07F02D008
:10272000A87B801DA87314F0140F02D0A87B103072
:10273000A873A00702D0A87B001DA87300203EBD8F
:1027400009E3CA02700000200EB54FF4976310B180
:1027500006A107C901E008A207CA8DE807006A467A
:102760000921184601F094FB0EBD0000B8AAB38DF4
:10277000B4980D355D000000B8AAAAAAB088C3C5F8
:10278000C700000008B560B1C0208DF80000C2206D
:102790008DF80100C4208DF80200C6208DF80300DA
:1027A00004E08B2204216846FDF7E6FD6A46042119
:1027B00040F6982001F06CFB01F02AF808BD0000FB
:1027C000C8234FF48062024940F6F63000F04ABF59
:1027D0005C5000082DE9FF41044603A800F02AFEE2
:1027E000BDF80C00410CC3032F48028902F003001E
:1027F000550754F8200000D54042C2F3C1059606A3
:1028000054F8255000D56D42C2F38116D20554F814
:10281000264000D56442A0FB0367C21702FB037287
:1028200000FB0120820042EA9670A5FB0367EA17CD
:1028300002FB037205FB0122950045EA9672A4FB98
:102840000367E51705FB037304FB01318B0043EAC3
:102850009671030E8DF80030030C8DF80130030AD9
:102860008DF802308DF80300100E8DF80400100C66
:102870008DF80500100A8DF80600080E8DF8080086
:10288000080C8DF80900080A8DF80A008DF8072059
:102890008DF80B106A460C214FF4257001F0F8FA00
:1028A00004B0BDE8F08100007000002030B504469F
:1028B00013A285B007CA8DE807004FF0FF35C82C7A
:1028C00016D8C820B0FBF4F1491E080A8DF80C0098
:1028D0008DF80D1003AA022140F2162001F0D8FA5B
:1028E00030B96A460C2140F6C12001F0D1FA10B18E
:1028F000284605B030BD054884810020F9E7000076
:10290000FEF2ABC4AAF1DFDFBBAFDFDF7000002057
:10291000F8B53049098901F0030250F822404A070E
:1029200000D56442C1F3C1028B0650F8222000D5C5
:102930005242C1F3811350F82330C80500D55B42E1
:10294000254984FB0140850045EA947082FB0142E1
:10295000A40F44EA820483FB0121950F45EA810517
:10296000010E8DF80010010C8DF80110010A8DF890
:1029700002108DF803006A4604214FF4747001F0D0
:1029800087FA4FF0FF3688B9200E8DF80000200C32
:102990008DF80100200A8DF802008DF803406A4688
:1029A00004214FF4757001F073FA08B13046F8BD98
:1029B000280E8DF80000280C8DF80100280A8DF8EB
:1029C00002008DF803506A4604214FF4767001F03E
:1029D0005FFAF8BD7000002009E3CA022DE9FF414B
:1029E00004463CA004F00303006802903AA000688B
:1029F00003903AA006683AA0056802A8C15C8DF869
:102A00000010C4F3C101425C8DF80120C4F38112AF
:102A1000805C8DF8020003A8C35C8DF80430415C33
:102A20008DF80510805C8DF806006A46032140F29F
:102A3000264001F02DFA4FF0FF37E0BB01AA032139
:102A400040F22A4001F024FAA8BBCDE900656007F6
:102A50000BD59DF8000040F001008DF800009DF8B6
:102A6000040040F001008DF80400A0060BD59DF88D
:102A7000010040F001008DF801009DF8050040F0D4
:102A800001008DF80500E0050BD59DF8020040F02F
:102A900001008DF802009DF8060040F001008DF85D
:102AA00006006A4603214FF4886001F0F1F910B97D
:102AB00001AA032100E004E040F2314001F0E8F90E
:102AC00018B1384604B0BDE8F08106480481002002
:102AD000F8E700004CCD6C000CC92C00365676008F
:102AE00026466600700000204FF47A7290FBF2F0E8
:102AF00008B54843010E8DF80010010C8DF8011047
:102B0000010A8DF802108DF803006A4604214FF483
:102B1000AE7001F0BDF908BD0521B0FBF1F008B5BC
:102B2000010A8DF800108DF801006A4602214FF469
:102B3000AD7001F0ADF908BD0521B0FBF1F008B5AD
:102B4000010A8DF800108DF801006A4602214FF449
:102B5000AC7001F09DF908BD08B500218DF800109A
:102B6000C10702D030218DF80010810705D59DF8EE
:102B7000001041F00C018DF80010400705D59DF8BC
:102B8000000040F003008DF800006A4601214FF478
:102B9000A47001F07DF908BD08B560B1042800D922
:102BA0000420401E8DF800006A46012140F24F10BB
:102BB00001F06EF908BD0120F3E700002DE9FC41AA
:102BC000054640074FF0FF367CD0B1F5C86F79D885
:102BD000084601F071FB3E4901F058FA074601A88A
:102BE00000F00AFC9DF80400022806D004280DD04D
:102BF00008282ED0102865D134E00E21384601F087
:102C0000E2FC01F021FB84B2324907E00D21384695
:102C100001F0D9FC01F018FB2F4984B2384601F0CD
:102C20005FFB01F011FB210A8DF8001080B28DF8D6
:102C30000140010A8DF802108DF80300E8076C4688
:102C400020D0224602214FF4EA7001F021F9C8BBDE
:102C500011E00C21384601F0B6FC01F0F5FA84B21F
:102C60001E49DBE70B21384601F0ADFC01F0ECFA20
:102C700084B21B49D2E7A21C02214FF4927001F0EA
:102C800007F9F8B9A8070DD56A4602214FF4EC7090
:102C900001F0FEF8B0B9A21C02214FF4947001F0CB
:102CA000F7F878B9680710D56A4602214FF4EE703C
:102CB00001F0EEF830B9A21C02214FF4967001F039
:102CC000E7F810B13046BDE8FC810020FBE70000CA
:102CD00000004843000040460000C0450000404559
:102CE0000000C0440521B0FBF1F008B5010A8DF8E1
:102CF00000108DF801006A4602214FF4EF7001F0D8
:102D0000C7F808BD0521B0FBF1F008B5010A8DF840
:102D100000108DF801006A4602214FF4ED7001F0B9
:102D2000B7F808BD2DE9FE430646264801AB04224C
:102D300040680D210078FEF7BBFF10B10720BDE809
:102D4000FE839DF804101C2000EAD1029DF80710B4
:102D5000DFF87490C1F301131A438DF800209DF839
:102D60000520C1F3810300EAD2021A438DF8012045
:102D70009DF8062001F0030100EAD2000843002478
:102D8000124F8DF80200A0466D46285D10B146F83E
:102D900024900AE046F824800DE000BF56F8240095
:102DA000394601F09DFA46F82400285D401E10F0D7
:102DB000FF002855F2D1641CE4B2032CE5D30020B7
:102DC000BDE700001C0000207B14AE3E1D5A843F6E
:102DD0002DE9FE4F05460120C14E8DF800004FF051
:102DE00000088DF8018030680C461746817C7068B9
:102DF0006B4602220078FEF7E8FF4FF0FF3A00280A
:102E00007AD1C820FDF738FC8DF8008030686B4619
:102E10000122C17B70680078FEF7D7FF0028EFD150
:102E200030686B460122417970680078FEF7CDFF6B
:102E30000028E5D130686B460122817C70680078FB
:102E4000FEF7C3FF0028DBD130686B460122C17D4D
:102E500070680078FEF7B9FF0028D1D130686B4662
:102E60000122017970680078FEF7AFFF0028C7D112
:102E70004FF00C098DF8009030686B460122017903
:102E800070680078FEF7A1FF002835D10F20FDF70C
:102E9000F3FBB06A6B460122407A8DF8000030687F
:102EA000817870680078FEF790FF002824D1B06A1E
:102EB0006B460122007A8DF8000030684178706816
:102EC0000078FEF782FF002873D1B06A807A0FB1D4
:102ED00040F0E0008DF8000030686B4601228179F7
:102EE00070680078FEF771FF002862D12FB1B06AD8
:102EF000C07A40F0E00001E04AE018208DF80000C0
:102F000030686B460122C17970680078FEF75DFF7A
:102F1000F0BB17B1C820FDF7AFFB40208DF80000D3
:102F200030686B460122017970680078FEF74DFF2A
:102F300070BB78208DF8000030686B460122417923
:102F400070680078FEF741FF10BB3220FDF794FB5C
:102F50008DF80080306847466B46417970680122E1
:102F60000078FEF732FF98B931687068B046897A08
:102F700000786B460222FEF79BFE48B9BDF80000C0
:102F8000AF6040BAB0FBF9F06F60C6B22F6000E0EE
:102F90000FE0A76067602760002739E0D8F80010CD
:102FA000D8F804006B46C97A00780C22FEF780FE40
:102FB00010B15046BDE8FE8FBDF80000236840BA4E
:102FC00002B2BDF80200BDF804101A44226040BAF3
:102FD000626800B21044606049BAA06809B208444F
:102FE000A060BDF806002B6840BA02B2BDF8080028
:102FF0001A4440BA01B2BDF80A002A606A6840BAB1
:1030000011446960A96800B208447F1CFFB2A8603F
:10301000B742C3D328688322C117090441EA10418B
:1030200000040023FDF7D4F832460023FDF7D0F862
:10303000286068688322C117090441EA104100042E
:103040000023FDF7C5F832460023FDF7C1F868609C
:10305000A8688322C117090441EA10410004002333
:10306000FDF7B6F832460023FDF7B2F8A8602068F5
:103070004FF40065C117090441EA104100042A46D3
:103080000023FDF7A5F832460023FDF7A1F82060E4
:1030900060682A46C117090441EA10410004002370
:1030A000FDF796F832460023FDF792F86060A068BD
:1030B0002A46C117090441EA104100040023FDF724
:1030C00087F832460023FDF783F8A060002802DD70
:1030D000A0F5803001E000F58030A060002069E7B5
:1030E0001C0000202DE9F84F81462E488846002517
:1030F00040686B46032200780D21FEF7D9FD10B120
:103100000720BDE8F88F9DF80000002400F01F00A4
:103110008DF800009DF801006FF00F0B00F01F000C
:103120008DF801009DF802006E4600F01F008DF83A
:1031300002004FF0010A00BF59F8241058F824008B
:10314000081A00D5404201F09FF8594601F03BFAB9
:103150000746305DC0B1144802E0144901F0C0F8E0
:10316000315D491E11F0FF013155F6D10146384657
:1031700000F08CFF4FF07E5101F07EF90C4920F0F9
:103180000040884205DC07E00A483844B0F1D97FA6
:1031900002D90AFA04F00543641C032CCCDB284650
:1031A000AFE700001C0000200000C84154E3853F49
:1031B000295C0F3E0000E0BE00B5024600F00DF8AD
:1031C0000346D01C00F009F843EAC003901D00F04C
:1031D00004F843EA801080B200BD90F90010002985
:1031E00002DD4FF00000704702DA4FF00400704734
:1031F00090F90110002902DD4FF00100704702DA5A
:103200004FF00500704790F90200002802DD4FF0F2
:103210000200704702DA4FF0060070474FF00700D7
:1032200070470000FDF7D6FCFEF7FBFFFEF7F6FD4A
:10323000FEF734FEFEF752FEFEF7A8FEFEF7DAFEBA
:10324000FEF72AFFFEF70EFFFEF7DAFC00F082F829
:103250000021102319A20846FEF77CFF00211B481D
:10326000FEF7B6F90C211948FEF7B2F93C211848CF
:10327000FEF798F83C211748FEF794F8002108461D
:10328000FEF774FC144C00BFFEF7A6FF13A117480D
:103290006268FCF7C1FF1023144A02210020FEF7E8
:1032A00059FF13A11148A268FCF7B6FF10230F4A7B
:1032B00004210020FEF74EFFE6E70000496E697426
:1032C000205375636573732100000000E80000203F
:1032D000300100207801002054000020456E636F0B
:1032E0006465725F4C3A2564202000008000002055
:1032F000456E636F6465725F523A2564202000005A
:103300002DE9F041124C20F00101002594F8240031
:1033100010B10020BDE8F081A07A4FF0FF3668B10F
:103320000840277C2074884200D0354641B10120F6
:1033300000F018FE00F06CFA38B127743046E9E767
:10334000207D00B1012000F00DFE2846E2E70000DC
:103350001C00002010B5FEF719FB00F0F1F808B1D1
:103360000A2010BD782000F037FD10F0FF0F01D0CB
:10337000012010BD7820FFF7C3FF10F0FF0F01D030
:10338000022010BD642000F0E7FC10F0FF0F01D018
:10339000032010BDFFF714FA10F0FF0F01D0042036
:1033A00010BD1448FFF708FFFFF718FB10F0FF0FE0
:1033B00001D0052010BD40F27310FFF7D9F810F0CE
:1033C000FF0F01D0062010BD6420FFF76FFA10F048
:1033D000FF0F01D0072010BD00F084FD08B10820C8
:1033E00010BD012000F0DEFB10F0FF00F8D0092036
:1033F00010BD0000480000200D494A7A42B1012A60
:1034000008D0022A0FD0032A0FD04FF0FF307047A8
:10341000022200E004220270C97C11B11106C90D1C
:103420000170002070470822F5E71022F3E7000042
:103430001C0000200F494A7A42B1012A09D0022A11
:1034400011D0032A12D04FF0FF3070474FF4804262
:1034500001E041F69C720280C97C11B1C2F34E01B9
:103460000180002070474FF48052F4E74FF400626F
:10347000F1E700001C0000200B49097A39B101294D
:1034800007D002290AD003290BD0002103E0FA213A
:1034900001E04FF4FA710180002070474FF47A7117
:1034A000F9E74FF4FA61F6E71C0000200A49097AAF
:1034B00041B1012908D002290AD003290AD04FF0CE
:1034C000FF307047054900E0054901600020704762
:1034D0000449FAE70449F8E71C0000200000034310
:1034E0000000834233330342333383410C49C97AAA
:1034F000072913D2DFE801F01204060A0C0E1000AF
:10350000BC2100E062210180002070472A21FAE7F7
:103510001421F8E70A21F6E70521F4E70021F2E794
:103520001C000020054991F8242012B14FF0FF3013
:103530007047C98901800020704700001C000020EE
:103540002DE9FC41464C80208DF8000020686B4638
:103550000122817C60680078FEF737FC4FF0FF376E
:10356000002875D16420FDF787F800258DF80050FC
:1035700020686B460122817C60680078FEF725FC9C
:10358000002865D120686B460622817D606800783E
:10359000FEF78EFB00285BD19DF805009DF8031017
:1035A000C007400F01F0010140EA41009DF8011001
:1035B0004FF0010601F00101084304D0012831D089
:1035C000022810D044E020686B460122C178606870
:1035D0000078FEF76DFBD8BB9DF8000010F00F00DF
:1035E00036D004281ED0E574FF2004F80A0F4FF6E9
:1035F000FF7104F8020C04F8010C6070A180A07146
:103600002072A67026766576E572A572E560256162
:103610006561A576E576A5834FF4FA6000F0FEFAC1
:10362000B0B901E0E674DFE7022000F019FA78B9DA
:103630002A2000F05BFB58B9322000F08DFB38B92E
:103640000020FFF75DFE18B9002000F03DFA10B130
:103650003846BDE8FC81002000F0BEFB0020F8E702
:103660001C0000202DE9FF4FDFF89480064685B04E
:1036700098F8250015460F464FF0FF39B0BBAFB3A1
:10368000002420E0301B102800DD102080B283468B
:103690003A1901469246204600F0FAFB30BB6A46D2
:1036A0005946204600F08AF800BB50465A46694603
:1036B000FCF736FE20B16FF0010009B0BDE8F08FD5
:1036C00004EB0B0084B2B442DCD3280A8DF810005E
:1036D0008DF81150D8F80000444604AB817ED8F82C
:1036E000040002220078FEF770FB08B14846E4E7C8
:1036F000012084F825000898E0840020DDE7000020
:103700001C0000202DE9F84305464FF0FF3928281A
:1037100044D80727284C00267DB1012000F0B4FAD8
:1037200020208DF800004FF00108012D17D0052D45
:1037300018D88DF8018005201FE0002000F0A4FAC1
:103740008DF800608DF8017020686B460222817C44
:1037500060680078FEF739FB00BB267529E08DF81C
:103760000160E8E7142D04D802208DF801000A203A
:1037700003E003208DF80100142000F0B7FA9DF853
:1037800001006B4607EB80108DF8010020680222D3
:10379000817C60680078FEF718FB10B14846BDE8F0
:1037A000F8830820A072267384F814800020FFF7A5
:1037B000A7FD0020F3E700001C000020F8B516006C
:1037C0000D464FF0FF371FD0104CA17AE1B1010A2E
:1037D0008DF80010C0B28DF801004119606842896F
:1037E000914211D8216800786B46097E0222FEF7CB
:1037F000ECFA48B92068EAB23346417D6068007847
:10380000FEF756FA002800D03846F8BD1C0000200C
:10381000F8B5564C4FF0FF36A07A00287DD0002531
:103820008DF8005020686B460122C17B60680078EB
:10383000FEF7CBFA002870D120686B46012241794F
:1038400060680078FEF7C1FA002866D120686B46F0
:103850000122017960680078FEF7B7FA00285CD190
:1038600094F82400E0B30C208DF8000020686B462B
:103870000122017960680078FEF7A7FA002872D16A
:103880003220FCF7F9FEC0208DF80000A07AC007B6
:1038900002D0E0208DF8000020686B4601220179FB
:1038A00060680078FEF791FA00285CD1607C18B15E
:1038B00002208DF8000001E08DF8005020686B4672
:1038C0000122C17B60680078FEF77FFA28BB8DF883
:1038D000005020686B4601224179606800783EE024
:1038E000FFE704208DF8000020686B460122017973
:1038F00060680078FEF769FA78B9A07C90B9A07A80
:10390000C0070FD05FF060008DF8000020686B46A4
:10391000012201796068007800E024E0FEF755FAA2
:1039200008BB01E04020EFE73220FCF7A5FE607CF9
:1039300018B101208DF8000001E08DF800502068DA
:103940006B460122C17B60680078FEF73EFA50B9F1
:103950002068064B01224179606810330078FEF739
:1039600034FA002800D03046F8BD00001C000020CA
:103970002DE9F047394C82468AB094F824000F466E
:1039800020B1002000F00EF9012600E0002607A873
:10399000FFF772FD06A8FFF72FFD09A8FFF7A6FDA8
:1039A00008A8FFF7BFFD94F80A9094F8108000254E
:1039B000002239465046FFF70BFA10B16D1C022D5C
:1039C000F6DB022D1AD00025012203A96846FFF775
:1039D000FFF910B16D1C022DF6DB022D0ED003A9EC
:1039E0003846FEF767FDC7B269465046FFF77AFBD7
:1039F00010F0FF0F4FF0000502D002E0002503E0B9
:103A000001250FB945F00205FF2020726072E072B7
:103A10004FF6FF71E181A072207401202073BDF880
:103A20001C0000F0FBF89DF8180000F019F8BDF834
:103A3000240000F05BF9BDF8200000F08DF9484645
:103A400000F0CAF94046FFF75BFC16B1012000F018
:103A5000A9F80AB02846BDE8F08700001C00002045
:103A600038B5184C4FF0FF35A17A19B3022806D0AB
:103A7000042806D008280ED010281BD10DE0002005
:103A800000E008208DF80000607A9DF80010B0EB8F
:103A9000D10F04D005E01020F4E71820F2E7002051
:103AA00038BD20686B460122C17960680078FEF756
:103AB0008CF908B1284638BD9DF80000C008607236
:103AC000EDE700001C000020F8B5354C0546A07C51
:103AD000A84201D10020F8BD31484FF0FF366B46B7
:103AE000D0E900104FF001020979007835B3FEF7F4
:103AF000DFF870BB9DF800006B4620F020008DF8C9
:103B0000000020680122017960680078FEF75DF905
:103B1000F8B90320FCF7B0FD02208DF8000094F8FE
:103B2000220078B382202BE020686B460122017DC1
:103B300060680078FEF749F958B92EE0FEF7B8F84A
:103B400038B9A07AC0079DF8000003D040F02000EB
:103B500002E00CE020F020008DF8000020686B46A9
:103B60000122017960680078FEF72FF908B130462C
:103B7000F8BD0320FCF780FD94F8220000B18020FE
:103B80008DF8000094F823000028CDD09DF80000A7
:103B900040F030008DF80000C6E7A5749AE70000F9
:103BA0001C00002038B51C4C94F8241081421DD014
:103BB000002500B394F82500D0B1002000F0D2F920
:103BC0000020FFF781FFE08C00F0C6F88DF8005070
:103BD00060686B46012200782321FEF7F6F8012089
:103BE00084F8240000F0BEF9FFF712FE002038BD73
:103BF0004FF0FF3038BD002000F0B4F9207C8DF884
:103C0000000060686B46012200782321FEF7DDF892
:103C100084F82450E8E700001C00002038B5194C57
:103C20004FF0FF35A17A31B3FA2809D0B0F5FA7F09
:103C300008D0B0F57A7F0FD0B0F5FA6F1BD10DE048
:103C4000002000E008208DF80000207A9DF8001088
:103C5000B0EBD10F04D005E01020F4E71820F2E714
:103C6000002038BD20686B460122817960680078A9
:103C7000FEF7ABF808B1284638BD9DF80000C00833
:103C80002072EDE71C00002038B5174C054694F86B
:103C90002300A84201D1002038BD0DB1302000E042
:103CA00000208DF80000A07C28B19DF8000040F0B5
:103CB00002008DF8000094F8220028B19DF8000061
:103CC00040F080008DF8000020686B460122017DE5
:103CD00060680078FEF779F810B14FF0FF3038BD1A
:103CE00084F82350D7E700001C00002038B5194C99
:103CF0004FF0FF35A17A31B3BC2801D3012010E089
:103D0000622801D302200CE02A2801D3032008E016
:103D1000142801D3042004E00A2801D3052000E080
:103D200006208DF80000E07A9DF80010884201D14D
:103D3000002038BD20686B460122817860680078D9
:103D4000FEF743F808B1284638BD9DF80000E07240
:103D5000EEE700001C000020F8B51E4D04464FF0B1
:103D6000FF37A87A48B395F8240030BB287D4FF47C
:103D70007A7648B164B1282C03D8E0B2FFF7C2FCD0
:103D800026E00020FFF7BEFC042C05D2042406E048
:103D90000020FFF7B7FCF9E7B44200D93446B6FB80
:103DA000F4F0401E8DF8000028686B46012241782F
:103DB00068680078FEF709F808B13846F8BD9DF844
:103DC0000000401CB6FBF0F0E8814008FFF78EFFD2
:103DD0000020F8BD1C000020F8B5054610F0700F5B
:103DE0004FF0000601D0012004E015B18DF800600D
:103DF00002E040208DF80000244C6B460122206830
:103E0000817C60680078FDF7E0FF4FF0FF3760BB12
:103E10009DF8000020F0400020738DF800606806D7
:103E200002D404208DF80000A80605D49DF80000F7
:103E300040F002008DF80000E80605D49DF800006F
:103E400040F001008DF80000280705D49DF800001F
:103E500040F038008DF8000020686B460122C17CDC
:103E600060680078FDF7B1FF10B1A6723846F8BD62
:103E700025B1082D02D00020FFF706FFA572267598
:103E80003220FCF7F9FB0020F8BD00001C000020E8
:103E9000F8B516000D464FF0FF371FD0104CA17A31
:103EA000E1B1010A8DF80010C0B28DF8010041198E
:103EB00060684289914211D8216800786B46097E7A
:103EC0000222FDF782FF48B92068EAB23346417DFD
:103ED00060680078FDF779FF002800D03846F8BD0B
:103EE0001C00002010B588B0694604A8FFF740FD0B
:103EF000032802D0012008B010BD07A8FFF7D6FAAA
:103F0000049800F0C1F907990C4600F0E9F900F0B7
:103F10007FF90490059800F0B7F9214600F0E0F928
:103F200000F076F90590069800F0AEF9214600F011
:103F3000D7F900F06DF9069004A8FEF7E9FC03A894
:103F4000FFF778FABDF80C00009941430091019900
:103F5000414301910299414368460291FEF73AFCC0
:103F60000020C8E7F8B5144C0146224694F82460B6
:103F7000D2E9000200235D1E56B179B1022111E0A1
:103F8000C17B10786B460122FDF71FFF68B90EE078
:103F9000A67A56B111B1617C61B902E08DF80030AA
:103FA000EEE701218DF80010EAE72846F8BD9DF8FC
:103FB000000060740020F8BD1C00002090EA010F92
:103FC00048BF81F0004100F15E82421A3CBF801A76
:103FD00089184FEAD0524FF07F4C1CEA410FA2EBF8
:103FE000D15318BF9CEA026F00F03B804FF0004CA9
:103FF0004CEA00204CEA012121FA03FC10EB0C0CE6
:104000001ED202F1FF325FEA1C2040EBC25038BFE3
:1040100070471CF07F0F4FEA400C18BFBCF17F4F78
:1040200038BF7047C3F12003994008BF20F001005A
:10403000BCF17F4F38BF7047A0F1C04000F017BA05
:104040004FEA3C00000A40EBC25028BF1CF0FF0FB3
:104050004FEA400CE6D018BFBCF17F4F38BF704725
:10406000EAE79CEA026F05D010EA5C0F08BF00F097
:104070000040704710B500F0B4F900BF64FBBE3ECD
:10408000014800F06EBA00BF0000C07F4FF47F0C03
:104090001CEAD0121EBF1CEAD11392EA0C0F93EA5D
:1040A0000C0F00F0858090EA010F48BF42F4807247
:1040B00040F4000C41F400002CF07F4120F07F40E0
:1040C00000B58142A2EB03020FF2081CACEB504E8C
:1040D000C0F100009EF800E04FEA4E0E00FB0EFC1F
:1040E00038BF49004FEA2C1C02F5FA020CFB0EF314
:1040F0004FEACE1E4FEA112C4FEAC1210EEB635E50
:1041000042EB22420EFB0CFC4FEA1C5300FB031156
:104110004FEA112C4FEA01310EFB0CFC4FEADC4C4C
:1041200000FB0C11C14228BF09184CEB03335DF8AA
:1041300004EB10EB410143EBC250B2F57C0F38BFEA
:10414000704729D512F0F00F1CBF00F1C04000F0FD
:1041500000407047008182838485868788898B8CA4
:104160008D8E8F919293959697999A9C9D9FA0A2E0
:10417000A3A5A7A8AAACAEB0B2B3B5B7B9BCBEC030
:10418000C2C5C7C9CCCED1D4D7D9DCDFE2E6E9ECD1
:10419000F0F3F7FAFE0000004FEA400C0CF1807CCF
:1041A000BCF17E4F28BF7047B0F1C04000F05FB94E
:1041B00090EA010F0CEAD11348BF42F480726245C5
:1041C00038BF634507D213F47F0F16D080EA010091
:1041D00000F00040704710B500F003F9097EFC3E86
:1041E00000F005B880EA010000F00040704780EA66
:1041F000010000F0004000F03AB912F47F0F04BF54
:104200000248704780EA010000F031B90000C07F29
:1042100041000B0ED3F19E0208D950F400034FEA7F
:10422000032323FA02F048BF4042704710B500F064
:10423000D8F800BF49922480002070476FF00042F8
:1042400082EA200070470000C10DD1F19E0206DB1A
:104250004FEA002343F0004323FA02F07047004284
:1042600007D54FEA4001B1F1FE4F02D24FF00000F6
:10427000704710B500F0B5F84992248000207047CF
:104280006FEA20007047000010F0004148BF404234
:10429000B0FA80F310FA03F2C3F19D030BD051EA98
:1042A000C35101EB1220530638BF704700F10100E3
:1042B00008BF20F001007047B0FA80F310FA03F253
:1042C000C3F19D030AD0D90501EB1220530638BF74
:1042D000704700F1010008BF20F0010070470000A6
:1042E0004FF47F0C1CEAD0121EBF1CEAD11392EAD5
:1042F0000C0F93EA0C0F00F0478090EA010F48BFC3
:1043000042F480724FF0004C4CEA00204CEA01214C
:1043100002EB0302A0FB0113A2F50002002918BF63
:1043200043F001035B0028BF4FEA330342EB224214
:104330005FEA132C4CEBC2502EBFBCEB436FB2F5BF
:104340007C0F70474FEA036CBCF1004F08BF20F0B0
:104350000100B2F57C0F38BF70470BD582F0FF0229
:1043600012F5803FC8BF704700F1C040D8BF00F0D1
:104370000040704700F5000C5FEA4C0C48BF7047E6
:10438000B0F1C04000F073B890EA010F0CEAD1130D
:1043900048BF42F48072624538BF634504D280EA68
:1043A000010000F00040704710B500F01AF800BF9F
:1043B0008900013E00F007B800F009B85FEA410C3F
:1043C0005FEA1C6C08D080EA010000F050B85FEA98
:1043D000400C5FEA1C6CF6D14FF00040A0F5800065
:1043E00070470EF1020E2EF0030E5EF8044B2442CD
:1043F00004D44FEA4102B2F17F4F11D84FEA400393
:10440000B3F17F4F0CD80ED14FEAD07CB2F17F4F81
:104410000CEB4C0C0CF1020C08BF4CEBD17C04E013
:104420004FF0080C01E04FEAD17C0CEB4C0324FA6E
:1044300003F404F00704B4F1040C06D20EEB840C70
:10444000BDE810404CF0010C6047DFE80CF00708B5
:1044500002024FF00040A0F5800010BD0846420067
:1044600018BFD2F1807288BF00F0004010BDFF215C
:1044700041EAD050C005704790EA010F48BF81F073
:1044800000413FF5A2AD421A04D882F00042A0EBF1
:10449000020011444FEAD0524FF07F4C1CEA410F0A
:1044A000A2EBD15318BF9CEA026F4AD04FF0004CE8
:1044B0004CEA00204CEA012121FA03FCB0EB0C0C81
:1044C0000FD412F0FE0F36D05FEA4C001DD500125B
:1044D00040EBC25038BF70471CF03F0F18BF704709
:1044E0000BE0A2F101025FEA1C2040EBC25038BF92
:1044F00070471CF07F0F18BF7047C3F1200399402D
:1045000014BF401E20F00100704780084FEA1223BC
:1045100008BF7047B0FA80FCA2EB0C02CCF1280C6B
:1045200060FA0CF093EA122F04BF00EBC250704700
:104530004FEAC3707047130A5FEADC1008BF704788
:10454000F6E79CEA026F04D010EA5C0F08BF002077
:10455000704710B5FFF745FF40DFF63E81F00040A1
:1045600070470CF00F03092B08BF082000F05180A2
:104570000A2B0BD0082B18BF704708BF1CF0400F48
:104580000AD04FF000004FF0000170471CF0400FC0
:1045900018BF4FF0004070471CF0100F08D020F0FB
:1045A000704300F07F4242EAD3014FEA4370704704
:1045B00000F0604021F07F4242EA000201F07F40BB
:1045C00040EA727070474FF0FF0212EAD0521CBFEF
:1045D00092F0FF038B42C2BFD14200EBC150704743
:1045E000002A0AD0002B0BD0002900F00040A4BF05
:1045F00040F0FE4040F40000704700F0004070477B
:1046000043024FF00B0C18BF4CF0806C7FF438ADB8
:1046100070471CF4801F11D01CF4E02F03D06FEA08
:10462000CC31490070474FF04050EFF3008222F048
:10463000704242EA000282F3008870474FF00000A7
:1046400070470000000000000000002F0000000084
:104650000700070000147F147F1400242A7F2A1209
:1046600000626408132300364955225000000503F8
:10467000000000001C224100000041221C00001428
:10468000083E08140008083E0808000000A060006A
:1046900000080808080800006060000000201008FA
:1046A0000402003E5149453E0000427F4000004266
:1046B00061514946002141454B31001814127F10C9
:1046C000002745454539003C4A49493000017109F8
:1046D000050300364949493600064949291E0000AC
:1046E0003636000000005636000000081422410053
:1046F0000014141414140000412214080002015183
:10470000090600324959513E007C1211127C007F8B
:1047100049494936003E41414122007F4141221C26
:10472000007F49494941007F09090901003E41498B
:10473000497A007F0808087F0000417F410000207F
:1047400040413F01007F08142241007F404040402B
:10475000007F020C027F007F0408107F003E414171
:10476000413E007F09090906003E4151215E007F5C
:10477000091929460046494949310001017F0101D3
:10478000003F4040403F001F2040201F003F403876
:10479000403F0063140814630007087008070061B5
:1047A0005149454300007F41410000552A552A5593
:1047B000000041417F00000402010204004040402B
:1047C0004040000001020400002054545478007F4F
:1047D0004844443800384444442000384444487F26
:1047E00000385454541800087E0901020018A4A48B
:1047F000A47C007F080404780000447D4000004051
:1048000080847D00007F102844000000417F40002C
:10481000007C04180478007C0804047800384444C0
:10482000443800FC242424180018242418FC007C9C
:104830000804040800485454542000043F44402015
:10484000003C4040207C001C2040201C003C4030AC
:10485000403C004428102844001CA0A0A07C004438
:1048600064544C4414141414141400000000000088
:1048700000000000000000000000000000F8000040
:104880000000000000333000000000100C06100C87
:104890000600000000000000000040C07840C07822
:1048A0004000043F04043F040400007088FC08300A
:1048B0000000001820FF211E0000F008F000E018A2
:1048C000000000211C031E211E0000F0088870005B
:1048D00000001E2123241927211010160E000000AD
:1048E00000000000000000000000000000E01804CC
:1048F0000200000000071820400000020418E00039
:1049000000000040201807000000404080F0804078
:1049100040000202010F01020200000000F000004E
:1049200000000101011F0101010000000000000062
:10493000000080B0700000000000000000000000D7
:104940000000000101010101010100000000000060
:104950000000003030000000000000000000806017
:104960001804006018060100000000E0100808109C
:10497000E000000F102020100F00001010F80000C1
:1049800000000020203F2020000000700808088858
:104990007000003028242221300000300888884828
:1049A00030000018202020110E000000C02010F858
:1049B000000000070424243F240000F80888880829
:1049C00008000019212020110E0000E0108888182E
:1049D0000000000F112020110E0000380808C83810
:1049E00008000000003F00000000007088080888F0
:1049F0007000001C222121221C0000E01008081079
:104A0000E0000000312222110F00000000C0C000B1
:104A100000000000003030000000000000800000B6
:104A200000000000806000000000000080402010B6
:104A300008000001020408102000404040404040AF
:104A40004000040404040404040000081020408012
:104A50000000002010080402010000704808080847
:104A6000F0000000003036010000C030C828E81017
:104A7000E0000718272423140B000000C038E000D2
:104A80000000203C23020227382008F8888888701C
:104A90000000203F202020110E00C0300808080828
:104AA0003800071820202010080008F8080808100F
:104AB000E000203F202020100F0008F88888E80838
:104AC0001000203F20202320180008F88888E808DC
:104AD0001000203F200003000000C0300808083804
:104AE000000007182020221E020008F80800000815
:104AF000F808203F210101213F20000808F808089C
:104B000000000020203F2020000000000808F808D6
:104B10000800C08080807F00000008F888C0281846
:104B20000800203F20012638200008F80800000077
:104B30000000203F20202020300008F8F800F8F87E
:104B40000800203F003F003F200008F830C0000868
:104B5000F808203F200007183F00E0100808081060
:104B6000E0000F10202020100F0008F808080808A7
:104B7000F000203F210101010000E01008080810AA
:104B8000E0000F18242438504F0008F888888888DF
:104B90007000203F2000030C3020007088080808B7
:104BA00038000038202121221C00180808F80808C5
:104BB00018000000203F2000000008F8080000084E
:104BC000F808001F202020201F000878880000C857
:104BD0003808000007380E010000F80800F8000847
:104BE000F800033C0700073C030008186880806851
:104BF000180820302C03032C30200838C800C8388F
:104C000008000000203F2000000010080808C838F5
:104C100008002038262120201800000000FE020293
:104C200002000000007F40404000000C30C0000047
:104C30000000000000010638C00000020202FE0071
:104C40000000004040407F0000000000040202021B
:104C50000400000000000000000000000000000050
:104C6000000080808080808080800002020400003C
:104C70000000000000000000000000008080808034
:104C800000000019242222223F2008F80080800022
:104C90000000003F112020110E00000000808080E5
:104CA0000000000E112020201100000000808088EC
:104CB000F800000E112020103F200000808080802E
:104CC0000000001F222222221300008080F088882A
:104CD00088180020203F2020000000008080808075
:104CE0008000006B94949493600008F800808080AA
:104CF0000000203F210000203F2000809898000005
:104D000000000020203F2020000000000080989834
:104D1000000000C08080807F000008F800008080D4
:104D20008000203F24022D302000000808F80000F9
:104D300000000020203F20200000808080808080B4
:104D40008000203F20003F20003F80800080808046
:104D50000000203F210000203F2000008080808054
:104D60000000001F202020201F0080800080800085
:104D7000000080FFA12020110E0000000080808034
:104D80008000000E112020A0FF80808080008080A5
:104D9000800020203F2120000100000080808080D2
:104DA00080000033242424241900008080E08080C7
:104DB00000000000001F2020000080800000008014
:104DC0008000001F202020103F2080808000008075
:104DD000808000010E300806010080800080008085
:104DE00080800F300C030C300F000080800080802A
:104DF00080000020312E0E31200080808000008055
:104E0000808080818E701806010000808080808004
:104E100080000021302C2221300000000000807C26
:104E2000020200000000003F40400002027C8000BF
:104E300000000040403F0000000000000000FF00B4
:104E4000000000000000FF0000002010E8242724DC
:104E500024E424342C20E0000000000000000000C6
:104E60000000000000000000000080601F09090928
:104E7000097F090949897F00000000000000000047
:104E8000000000000000000000000000FC242424BA
:104E9000FC252624FC24242404000000000000003B
:104EA0000000000000000000000040308F80844CB3
:104EB00055252525554C808080000000000000000D
:104EC00000000000000000000000008060F80704FF
:104ED000E4A4A4BFA4A4E4040000000000000000B7
:104EE00000000000000000000000010000FF404042
:104EF0007F4A4A4A4A4A7F404000000000000000C2
:104F0000000000000000000000000000F888888811
:104F100088FF88888888F8000000000000000000F2
:104F20000000000000000000000000001F0808084A
:104F3000087F888888889F80F000000000000000BB
:104F4000000000000000000000000000FE0282825D
:104F50008282FA82828282820200000000000000C7
:104F60000000000000000000000080601F40404082
:104F700040407F4040445840400000000000000096
:104F800000000000000000000000008060F807043E
:104F9000E4A4A4BFA4A4E4040000000000000000F6
:104FA00000000000000000000000010000FF404081
:104FB0007F4A4A4A4A4A7F40400000000000000001
:104FC00000000000000000000000000000000000E1
:104FD00000000000000000000000000000000000D1
:104FE0000000000000000000000000003636000055
:104FF00000000000000000000000000000000000B1
:105000000000000000000000000075191A0C6A235F
:105010001B1C1F207274433B4138393A6B6C376F4D
:1050200006246D6E70006800000476005401F7FDE0
:1050300000010000830000000008000000010018CB
:1050400032000500000020410000D242295C0F3EE2
:105050009A99993E3333733F295C0F3E00007000EC
:10506000000000240000000200030000006500545E
:10507000FFEF0000FA80000B12820001030C30C326
:105080000E8C8CE914D5400213710F8E3883F8838F
:105090003000F883258EF8833000F883FFFFFFFF90
:1050A0000FFEA9D6240004001A8279A10000003C5A
:1050B000FFFF00000010000038836FA2003E0330A5
:1050C0004000000002CAE3093E800000200000000A
:1050D000000000004000000060000000000C000024
:1050E000000C186E000006920A16C0DFFFFF025681
:1050F000FD8CD377FFE1C496E0C5BEAA0000000096
:10510000FFFF0B2B00001657000003594000000062
:1051100000001DFA00026C1D000000003FFFDFEBE5
:10512000003EB3B6000D227800002F3C00000000C6
:10513000001942B5000039A20000B365D90E9FC91D
:105140001DCF4C3430000000500000003BB67AE820
:105150000064000000C80000000000001000000013
:105160001000FA921000225E000D229F0001000044
:1051700000320000FF46000063D400001000000071
:1051800004D6000004CC000004CC00000000107223
:1051900000000040000000000000000000060002C7
:1051A000000500070000000000640000000000008F
:1051B0000000000500050064002000000000000061
:1051C000000000000000400000000300000000326A
:1051D000F8980000FF650000830F0000FF9BFC00B3
:1051E00000000000000000000000000000000000BF
:1051F00000000000000000000000000000000000AF
:10520000000000000000000000001000400000004E
:10521000000000060000B26A000200000001FB83EB
:105220000068000000D9FC007CF1FF830000000052
:1052300000650000006403E8006400280000002509
:105240000000000016A00000000010000000100088
:10525000002F0000000001F40000100000280000F2
:10526000FFFF4581FFFFFA72000000000000000010
:10527000004400050005BAC6004778A200000001FE
:105280000000000000000600000000140000254D92
:10529000002F706D000005AE000C02D00000000071
:1052A000000000000000000000000000001B0000E3
:1052B000000000000000000000000000006400008A
:1052C00000080000000000000000000000000000D6
:1052D00000000000000000000000000000000000CE
:1052E00000000000000000000000000000000000BE
:1052F00000000000000000000000000000000000AE
:10530000000000000000000000000000000000009D
:10531000000000000000000000000000001B000072
:105320000000000000000000000E000E00000AC790
:105330000004000000000032FFFFFF9C00000B2B68
:10534000000000020000000100000064FFE5000012
:10535000000000000000000000000000000000014C
:1053600000000000000100000000000000018000BB
:105370000001800000018000002426D3000000000E
:1053800000000000000600100096003C0000000035
:105390000000000000000000000000000C0A4E6841
:1053A000CDCF770950166759C619CE82000000008C
:1053B00000000000000000000000000000000000ED
:1053C0000000000017D78400030000000000000068
:1053D00000000000C7938F9D1E1B1C1900000000D9
:1053E00000000000000000000000000000000000BD
:1053F00000000000020318850000400000000003C8
:105400000000000300000000000000004000000059
:10541000000000000000000000000000000000008C
:10542000000000000000000000000000000000007C
:10543000000000000000000000000000000000006C
:10544000677DDF7E72902E554CF6E68800000000E6
:10545000000000000000000000000000D8DCB4B82C
:10546000B0D8B9ABF3F8FAB3B7BB8E9EAEF132F554
:105470001BF1B4B8B08097F1A9DFDFDFAADFDFDF6F
:10548000F2AAC5CDC7A90CC92C97F1A989264666F1
:10549000B28999A92D557DB0B08AA896365676F175
:1054A000BAA3B4B280C0B8A89711B28398BAA3F0D7
:1054B000240844106418B2B9B49883F1A329557D27
:1054C000BAB5B1A38393F0002850F5B2B6AA83937E
:1054D00028547CF1B9A3829361BAA2DADEDFDB81C2
:1054E0009AB9AEF5606870F1DABAA2DFD9BAA2FA59
:1054F000B9A38292DB31BAA2D9BAA2F8DF85A4D0CF
:10550000C1BBAD83C2C5C7B8A2DFDFDFBAA0DFDF92
:10551000DFD8D8F1B8AAB38DB4980D355DB2B6BA5C
:10552000AF8C96198F9FA70E161EB49AB8AA872C17
:10553000547CBAA4B08AB691325676B28494A4C888
:1055400008CDD8B8B4B0F19982A82D557D98A80E91
:10555000161EA22C547C92A4F02C5078F184A898AA
:10556000C4CDFCD80DDBA8FC2DF3D9BAA6F8DABA65
:10557000A6DED8BAB2B68696A6D0F3C841DAA6C8D7
:10558000F8D8B0B4B882A892F52C548898F135D9DF
:10559000F418D8F1A2D0F8F9A884D9C7DFF8F883B5
:1055A000C5DADF69DF83C1D8F40114F1A8824EA8FF
:1055B00084F311D182F5D992289788F109F41C1C43
:1055C000D884A8F3C0F9D1D99782F129F40DD8F382
:1055D000F9F9D1D982F4C203D8DEDF1AD8F1A2FAE0
:1055E000F9A88498D9C7DFF8F8F883C7DADF69DF4C
:1055F000F883C3D8F40114F198A8822EA884F3117B
:10560000D182F5D992509788F109F41CD884A8F377
:10561000C0F8F9D1D99782F149F40DD8F3F9F9D14D
:10562000D982F4C403D8DEDFD8F1AD8898CCA809BC
:10563000F9D98292A8F57CF1883ACF944A6E98DB2A
:105640006931DAADF2DEF9D88795A8F221D1DAA571
:10565000F9F417D9F1AE8ED0C0C3AE82C684C3A808
:105660008595C8A588F2C0F1F4010EF18E9EA8C6FA
:105670003E56F554F18872F40115F19845856EF5A2
:105680008E9E0488F142985A8E9E068869F4011C09
:10569000F1981E1108D0F504F11E970202983625E4
:1056A000DBF9D985A5F3C1DA85A5F3DFD88595A8FF
:1056B000F309DAA5FAD88292A8F578F1881A849FBE
:1056C00026889821DAF41DF3D8879F39D1AFD9DF26
:1056D000DFFBF9F40CF3D8FAD0F8DAF9F9D0DFD916
:1056E000F9D8F40BD8F3879F39D1AFD9DFDFF41D98
:1056F000F3D8FAFCA869F9F9AFD0DADEFAD9F88F55
:105700009FA8F1CCF398DB45D9AFDFD0F8D8F18F63
:105710009FA8CAF38809DAAF8FCBF8D8F2AD978D7E
:105720000CD9A5DFF9BAA6F3FAF412F2D8950DD187
:10573000D9BAA6F3FADAA5F2C1BAA6F3DFD8F1BA5C
:10574000B2B68696A6D0CAF349DAA6CBF8D8B0B4DA
:10575000B8D8AD84F2C0DFF18FCBC3A8B2B68696BD
:10576000C8C1CBC3F3B0B48898A821DB718D9D71FB
:10577000859521D9ADF2FAD88597A828D9F408D80B
:10578000F28D29DAF405D9F285A4C2F2D8A88D9455
:1057900001D1D9F411F2D88721D8F40AD8F284982B
:1057A000A8C801D1D9F411D8F3A4C8BBAFD0F2DE98
:1057B000F8F8F8F8F8F8F8F8D8F1B8F6B5B9B08A0A
:1057C00095A3DE3CA3D9F8D85CA3D9F8D87CA3D99B
:1057D000F8D8F8F9D1A5D9DFDAFAD8B18530F7D9F8
:1057E000DED8F830ADDADED8F2B48C99A32D557D31
:1057F000A083DFDFDFB591A0F629D9FBD8A0FC2973
:10580000D9FAD8A0D051D9F8D8FC51D9F9D879D93A
:10581000FBD8A0D0FC79D9FAD8A1F9F9F9F9F9A007
:10582000DADFDFDFD8A1F8F8F8F8F8ACDEF8ADDEA3
:105830008393AC2C547CF1A8DFDFDFF69D2CDAA03B
:10584000DFD9FADB2DF8D8A850DAA0D0DED9D0F80D
:10585000F8F8DB55F8D8A878DAA0D0DFD9D0FAF874
:10586000F8F8F8DB7DF8D89CA88CF530DB38D9D077
:10587000DEDFA0D0DEDFD8A848DB58D9DFD0DEA03D
:10588000DFD0DED8A868DB70D9DFDFA0DFDFD8F19A
:10589000A888902C547C98A8D05C38D1DAF2AE8CD1
:1058A000DFF9D8B087A8C1C1B188A8C6F9F9DA363E
:1058B000D8A8F9DA36D8A8F9DA36D8A8F9DA36D875
:1058C000A8F9DA36D8F78D9DADF818DAF2AEDFD840
:1058D000F7ADFA30D9A4DEF9D8F2AEDEFAF983A733
:1058E000D9C3C5C7F1889BA77AADF7DEDFA4F884DA
:1058F0009408A797F300AEF29819A488C6A39488D9
:10590000F632DFF28393DB09D9F2AADFD8D8AEF8FA
:10591000F9D1DAF3A4DEA7F1889B7AD8F38494AEA8
:1059200019F9DAAAF1DFD8A881C0C3C5C7A3928349
:10593000F628ADDED9F8D8A350ADD9F8D8A378AD04
:10594000D9F8D8F8F9D1A1DADEC3C5C7D8A18194B6
:10595000F818F2B089ACC3C5C7F1D8B8B4B097860F
:10596000A8319B069907AB9728889BF00C20144020
:10597000B0B4B8F0A88A9A285078B79BA829517972
:10598000247059446938644831F1BBAB88002C5409
:105990007CF0B38BB8A804285078F1B088B497266F
:1059A000A85998BBABB38B02264666B0B8F08A9C68
:1059B000A82951798B2951798A2470598B205871E3
:1059C0008A4469388B3940688A6448318B30496031
:1059D00088F1AC002C547CF08CA804285078F18815
:1059E0009726A85998AC8C02264666F0899CA8296F
:1059F0005179247059446938644831A9880920597B
:105A000070AB11384069A8193148608CA83C415CE2
:105A1000207C00F187981986A86E767EA999882D3A
:105A2000557DD8B1B5B9A3DFDFDFAED0DFAAD0DEB8
:105A3000F2ABF8F9D9B087C4AAF1DFDFBBAFDFDF83
:105A4000B9D8B1F1A3978E60DFB084F2C8F8F9D964
:105A5000DED89385F14AB183A308B5839A0810B7BD
:105A60009F10D8F1B0BAAEB08AC2B2B68E9EF1FB2A
:105A7000D9F41DD8F9D90CF1D8F8F8AD61D9AEFB3D
:105A8000D8F40CF1D8F8F8AD19D9AEFBDFD8F4167C
:105A9000F1D8F8AD8D61D9F4F4ACF59C9C8DDF2B79
:105AA000BAB6AEFAF8F40BD8F1AED0F8AD51DAAE22
:105AB000FAF8F1D8B9B1B6A3839C08B9B1839AB505
:105AC000AAC0FD3083B79F10B58B93F20202D1AB11
:105AD000DADED8F1B080BAABC0C3B284C1C3D8B1EA
